:020000040800F2
:10000000D0060020CD0100088B150008A9130008B8
:1000100089150008D3020008FF190008000000003D
:10002000000000000000000000000000DF160008D3
:10003000D5020008000000008D150008E116000838
:10004000E7010008E7010008E7010008E7010008F0
:10005000E7010008E7010008E7010008E7010008E0
:10006000E7010008E7010008E7010008E7010008D0
:10007000E7010008E7010008E7010008E7010008C0
:10008000E7010008E7010008E7010008E7010008B0
:10009000E7010008E7010008E7010008E7010008A0
:1000A000E7010008E7010008E7010008E701000890
:1000B000E7010008E7010008E7010008E701000880
:1000C000E7010008E7010008E7010008E701000870
:1000D000E7010008E7010008E7010008E701000860
:1000E000E7010008E7010008E7010008E701000850
:1000F000E7010008E7010008E7010008E701000840
:10010000E7010008E7010008E7010008E70100082F
:10011000E7010008E7010008E7010008E70100081F
:10012000E7010008E7010008E7010008E70100080F
:1001300000F002F800F03AF80AA090E8000C8244BF
:100140008344AAF10107DA4501D100F02FF8AFF29C
:10015000090EBAE80F0013F0010F18BFFB1A43F0A5
:1001600001031847341A0000541A0000103A24BF43
:1001700078C878C1FAD8520724BF30C830C144BF0C
:1001800004680C607047000000230024002500264E
:10019000103A28BF78C1FBD8520728BF30C148BFEA
:1001A0000B6070471FB51FBD10B510BD00F058F8AB
:1001B0001146FFF7F7FF01F03BFC00F076F803B4BF
:1001C000FFF7F2FF03BC00F07DF80000094880470C
:1001D00009480047FEE7FEE7FEE7FEE7FEE7FEE729
:1001E000FEE7FEE7FEE7FEE704480549054A064B41
:1001F000704700006517000831010008D00000209A
:10020000D0060020D0020020D00200204FF00002D3
:1002100000B5134694469646203922BFA0E80C50FC
:10022000A0E80C50B1F12001BFF4F7AF090728BFD7
:10023000A0E80C5048BF0CC05DF804EB890028BF53
:1002400040F8042B08BF704748BF20F8022B11F07C
:10025000804F18BF00F8012B7047704770477047F8
:10026000754600F02BF8AE4605006946534620F06F
:100270000700854618B020B5FFF7B6FFBDE820405F
:100280004FF000064FF000074FF000084FF0000B52
:1002900021F00701AC46ACE8C009ACE8C009ACE805
:1002A000C009ACE8C0098D46704710B50446AFF3ED
:1002B00000802046BDE81040FFF781BF004870472E
:1002C0007000002001491820ABBEFEE726000200A6
:1002D0007047FEE7704772B6FEE7000070B504464F
:1002E00000F014F90546601C02D00448007804446C
:1002F00000F00CF9401BA042FAD370BD04000020AE
:100300002DE9F84FDFF8C8910024A9F1040B23462A
:100310000F2709F1040AABF1040ED1E00125A54035
:1003200006EA0502AA4276D1DFF8A8C14E68A6EB1C
:100330000C0866452BD00DDC032E34D005DC36B31B
:10034000012E19D0022E2FD11BE0112E16D0122E05
:100350002AD119E0B8F5881F19D006DCB8F5803F1E
:1003600015D0B8F5801F1FD111E0B8F5001F0ED0D1
:10037000B8F5041F18D10AE0CB6815E0CB681B1D47
:1003800012E0CB6808330FE0CB680C330CE08B68CD
:100390002BB1012B4FF0080303D0456104E0042387
:1003A00002E0056100E00023FF2A01D8064601E0D3
:1003B00000F104064FEA840501D9A5F12005D6F81D
:1003C000008007FA05FC28EA0C0803FA05F548EA5C
:1003D0000508C6F800804D68ED0070D53E4DAE6949
:1003E00046F00106AE61AD6924F0030605F0010593
:1003F00000953A4D06EB050CDCF80850A607360FC1
:1004000007FA06F825EA0805DFF8D480404503D14D
:100410004FF0000825E052E0DFF8C880404502D1E7
:100420004FF001081DE0DFF8C080404502D14FF0D9
:10043000020816E0DFF8B480404502D14FF003080F
:100440000FE0DFF8AC80404502D14FF0040808E02F
:10045000DFF8A080404502D14FF0050801E04FF0E1
:10046000060808FA06F848EA0508CCF808804D683E
:10047000D9F80060ED024D4601D5164300E09643E1
:100480002E604D68DAF80060AD02554601D516437E
:1004900000E096432E604D68DBF80060AD035D46DA
:1004A00001D5164300E096432E604D68DEF80060EB
:1004B000ED03754601D5164300E096432E60641C9B
:1004C0000A681646E2407FF429AFBDE8F88F0000C5
:1004D000080401400000111000100240000001401B
:1004E00000080140000C01400010014000140140D0
:1004F00000180140001C01408068084000D0012025
:1005000070470AB1016170470904FBE70148806840
:1005100070470000040000200248816802781144FE
:100520008160704704000020074810B5016841F061
:1005300010010160032000F067F80F2000F006F8BA
:1005400000F024F8002010BD0020024070B50D4DD1
:1005500004464FF47A712878B1FBF0F00A49096833
:10056000B1FBF0F000F0CFFC48B9102C07D200220C
:100570002146501E00F028F800206C6070BD01205C
:1005800070BD000004000020100000200C4808B5D9
:10059000816941F001018161816901F001010091EE
:1005A000C16941F08051C161C06900F08050009084
:1005B0000448416821F0E06141F00071416008BDEC
:1005C0000010024000000140F0B40E4B1B680C46C6
:1005D000C3F30223C3F10705042D00D90425191D17
:1005E000072901D2002300E0DB1E012606FA05F1EF
:1005F000491E214099409E40761E16403143F0BC72
:1006000001F0FEB90CED00E0064900F007020868B1
:100610004FF6FF03184040EA0220034A10430860E7
:10062000704700000CED00E00000FA0501490120D0
:100630000862704700000E4210B501460020284CA9
:1006400004292FD00BDC012930D0022929D100F058
:100650005BF96168C1F38131491C49001FE0082939
:1006600020D010291DD161682268D20119D51D48FA
:10067000C1F38342C903805C0AD56168194AC1F39A
:100680004041921E515C184AB2FBF1F1484301E02F
:10069000164948436168490203D440000321B0FB76
:1006A000F1F010BDBDE8104000F03EB9226AC2F37F
:1006B0000121012903D1920701D5C80310BD0229E8
:1006C00005D1626A920702D549F6404010BD032960
:1006D000FCD121688903F9D54FF2244010BD0000F8
:1006E00000100240701B000800127A0000093D0053
:1006F0002DE9F84305460078354CC00754D0E06931
:100700000026C00008D4E06940F08050E061E06954
:10071000012600F0805000902E480168C90512D4CF
:100720000168804641F480710160FFF7EFFE0746E3
:1007300005E000BFFFF7EAFEC01B642823D8D8F805
:100740000000C005F6D5206A10F4407021D0A988B9
:1007500001F4407181421CD0206A1F49012220F41B
:1007600040700A6000220A602062C00711D0FFF7C3
:10077000CDFE074641F2883808E000BFFFF7C6FE0D
:10078000C11B414502D90320BDE8F883206A8007D8
:10079000F4D5206A696820F44070084320621EB1D5
:1007A000E06920F08050E0612878800705D5606816
:1007B000A96820F44040084360602878C00605D549
:1007C0006068696920F48000084360600020DBE70E
:1007D0000010024000700040400442422DE9F04702
:1007E0000F46050061D0434E306800F00700B84264
:1007F00009D2306820F0070038433060306800F0DC
:100800000700B84251D128683B4C810712D54007F8
:1008100003D5606840F4E06060602878000703D585
:10082000606840F4605060606068A96820F0F00083
:10083000084360602878C00728D06868012810D075
:100840002168022810D0890700292EDA616821F07A
:10085000030101436160FFF759FE804641F2883988
:100860000DE021688903EFE78901EDE7FFF74EFE10
:10087000A0EB0801494502D90320BDE8F087606874
:10088000696800F00C00B0EB810FEFD1306800F028
:100890000700B8420BD9306820F0070038433060B9
:1008A000306800F00700B84201D00120E5E7287861
:1008B000400705D56068E96820F4E060084360609F
:1008C0002878000706D56068296920F4605040EA5E
:1008D000C100606000F028F86168084AC1F30311A4
:1008E000515CC8400649086006480068FFF72EFEC4
:1008F0000020C2E70020024000100240801B0008D8
:1009000010000020080000200448054900684968DC
:10091000044AC1F3C221515CC84070471000002056
:1009200000100240901B00080E4A51680E4801F06A
:100930000C03042B11D0082B0FD10C48C1F38343B7
:10094000C903C05C0AD55168084AC1F34041921EF0
:10095000515C054A5043B0FBF1F0704704494843ED
:10096000704700000010024000127A005E1B000871
:1009700000093D002DE9F84F040070D02078C04DEB
:10098000C00749D06868C0F38100012807D06868B3
:10099000C0F38100022809D16868C00306D5286821
:1009A000800339D560680028E7D035E06068B0F58D
:1009B000803F0BD010B1B0F5A02F11D0286820F4E3
:1009C00080302860286820F4802002E0286840F405
:1009D00080302860606890B1FFF798FD06460AE015
:1009E000286840F480202860F0E700BFFFF78EFD04
:1009F000801B642873D828688003F7D50CE0FFF7C4
:100A000085FD064605E000BFFFF780FD801B6428DA
:100A1000F0D828688003F7D420789A4E80074FF0EA
:100A200001094FF0000839D5686810F00C0F07D0A5
:100A30006868C0F38100022809D16868C00306D441
:100A40002868800714D52069012808D110E02069A2
:100A5000B0B1C6F80090FFF759FD074605E00AE17E
:100A6000FFF754FDC01B0228C4D828688007F7D5BB
:100A70002868616920F0F80040EAC10028600DE0B4
:100A8000C6F80080FFF742FD074604E0FFF73EFD91
:100A9000C01B022823D828688007F7D420780007D5
:100AA0002CD57948A169D9B1C0F80090FFF72EFD87
:100AB000074604E0FFF72AFDC01B02280FD8686A2A
:100AC0008007F7D571484FF4FA510068B0FBF1F098
:100AD000009000BF0098411E0091FAD20EE080E025
:100AE000C0F80080FFF712FD074604E0FFF70EFD97
:100AF000C01B022875D8686A8007F7D420784007A1
:100B000060D5E8690027C00008D4E86940F080504B
:100B1000E861E869012700F0805000905C480168B6
:100B2000C90513D40168834641F480710160FFF761
:100B3000EDFC824606E000BFFFF7E8FCA0EB0A00F0
:100B400064284ED8DBF80000C005F5D5E068012820
:100B50000AD008B1052813D0286A20F001002862C5
:100B6000286A20F0040002E0286A40F001002862B0
:100B7000E06841F2883B98B1FFF7C8FC82460BE081
:100B8000286A40F004002862EEE700BFFFF7BEFCD1
:100B9000A0EB0A0159455AD8286A8007F6D50CE01F
:100BA000FFF7B4FC824605E0FFF7B0FCA0EB0A01BA
:100BB00059454CD8286A8007F6D41FB1E86920F05F
:100BC0008050E861E06988B36968C1F38101022956
:100BD00044D00228C6F8608004D0FFF797FC044692
:100BE00038E034E0FFF792FC074604E0FFF78EFCA4
:100BF000C01B02282BD828688001F7D4206AB0F5E2
:100C0000803F05D16868A16820F40030084368601F
:100C1000D4E908010843696821F474110843686045
:100C2000C6F86090FFF772FC044606E025E000BFBE
:100C3000FFF76CFC001B022809D828688001F7D553
:100C40001BE000BFFFF762FC001B022802D9032053
:100C5000BDE8F88F28688001F4D40EE00128F7D0B1
:100C60006868226A00F48031914204D1616A00F41C
:100C70007010884201D00120EAE70020E8E7000078
:100C80000010024000004242800442421000002056
:100C90000070004070B5040003D0607C002610B1E5
:100CA00005E0012070BD2674204600F03DF80220CA
:100CB0006074204600F00AF9042550BB204600F07D
:100CC0006FFC30BB2068416821F007014160A068DB
:100CD00020B11448016821F0010101601148001F92
:100CE0000168A26821F46071114301606068411CD1
:100CF00004D10120FFF7A0FC58B1401E2268C0F3C8
:100D000003419160216880B2C860204600F062FC17
:100D100008B16574C5E7E67301206073A073607461
:100D2000002070BD306C004008B50068084988425A
:100D30000DD1FFF77BFC0748C16941F00061C1613B
:100D4000C069054900F0006000900120086008BDFE
:100D500000280040001002403C0442422DE9F041CE
:100D60000D4604003BD0C5B3207C01283AD04FF09B
:100D7000010884F8108002206074E87872B300F0F3
:100D800006FCE073687800F002FC6073A87800F05D
:100D9000FEFBA073C2B2617BE07B00F04DFC2073D0
:100DA0002870204600F038FC4FF46161B0FBF1F18F
:100DB000002518292DD91822B1FBF2F1A1EB011160
:100DC00001EB4101C1EB011100EBC1163146204698
:100DD00000F071FC0427C8B90BE000E004E001203A
:100DE000BDE8F0810220FBE7E07368786073A878C3
:100DF000CFE7204600F009FC411C0AD0B04208D2DF
:100E000006490144204600F042FC10B16774257485
:100E1000E5E784F8118025740020E1E780510100A6
:100E20002DE9F0410D46040024D01DB3207C01289B
:100E300023D04FF0010884F81080022060742878D5
:100E4000EAB100F0A4FB4FF4616100FB01F66878A1
:100E500000F09DFBC0EB001006EB8006A87800F0C8
:100E600096FB35182946204600F025FC002604276D
:100E700010BB0FE00120BDE8F0810220FBE74FF43A
:100E8000616148436978C1EB011100EB8100A978E9
:100E90004518E7E72068416821F0050141602046D8
:100EA00000F0B3FB411C0AD0A84208D20649014415
:100EB000204600F0ECFB10B167742674DAE784F882
:100EC000118026740020D6E78051010070B504001F
:100ED0000AD02068416821F008014160FFF716FB45
:100EE00005464FF47A7608E0012070BDFFF70EFB4F
:100EF000401BB04201D9032070BD20684068000744
:100F0000F4D5002070BD10B5401EB0F1807F01D334
:100F1000012010BD4FF0E02460610F21601700F048
:100F20006FFD0020A06107202061002010BD00009F
:100F300070B590F83C20012A2CD0012480F83C4068
:100F4000022280F83D2003685A689D6822F07006EE
:100F50000A6832435A60104B02689A420ED00F4B17
:100F60009A420BD0B2F1804F08D00D4B9A4205D077
:100F70000C4B9A4202D00C4B9A4204D1496825F09E
:100F800080031943916080F83D40002180F83C10B7
:100F9000084670BD022070BD002C014000340140A5
:100FA0000004004000080040000C004010B50400A0
:100FB00003D094F83D0010B107E0012010BD0020DF
:100FC00084F83C00204600F01FF8022084F83D0021
:100FD000211D206800F0C8FB012084F8460084F839
:100FE0003E0084F83F0084F8400084F8410084F813
:100FF000420084F8430084F8440084F8450084F8F3
:101000003D00002010BD000008B50068B0F1804F21
:1010100008D10548C16941F00101C161C06900F012
:101020000100009008BD00000010024070B50446A9
:1010300090F83C000025012817D0012684F83C6078
:10104000022084F83D002068826822F0770222F4B2
:101050007F4282600868502838D00DDC20284FD0AD
:1010600005DC90B3102811D14AE0022070BD302871
:1010700046D040280AD13BE060282FD070280DD000
:10108000B0F5805F03D0B0F5005F12D0012584F881
:101090003D60002084F83C00284670BDCB68D1E953
:1010A0000121206800F0B3FB2068816841F07701DE
:1010B00009E0CB68D1E90121206800F0A8FB206895
:1010C000816841F480418160E1E719E0CA684968BC
:1010D000206800F071FC5021206806E0CA68496869
:1010E000206800F07AFC6021206800F09AFBCEE7CF
:1010F000CA684968206800F05FFC40212068F4E776
:10110000226801461046F0E700B585B00021009145
:101110000191029103910068B0F1804F11D10A480A
:10112000816941F0040181618069694600F0040031
:101130000490012000900220019003900348FFF7E3
:10114000DFF805B000BD00000010024000080140BB
:1011500070B5044690F83C0000260D4601280FD0DB
:10116000012084F83C006AB1042A1DD0082A2FD03F
:101170000C2A3FD00126002084F83C00304670BD88
:10118000022070BD206800F055FB2068816941F0A5
:10119000080181612068816921F004018161206872
:1011A00081692A69114311E0206800F073FB20680F
:1011B000816941F4006181612068816921F4806165
:1011C0008161206881692A6941EA02218161D2E74F
:1011D000206800F095FB2068C16941F00801C161F9
:1011E0002068C16921F00401C1612068C1692A69D0
:1011F000114311E0206800F0B7FB2068C16941F499
:101200000061C1612068C16921F48061C161206809
:10121000C1692A6941EA0221C161ACE710B5040045
:1012200003D094F83D0010B107E0012010BD00206C
:1012300084F83C00204600F01EF8022084F83D00AF
:10124000211D206800F090FA012084F8460084F8FF
:101250003E0084F83F0084F8400084F8410084F8A0
:10126000420084F8430084F8440084F8450084F880
:101270003D00002010BD704710B50446022249B160
:1012800004290ED0082913D094F84100012816D063
:10129000012010BD94F83E000128F9D184F83E20C9
:1012A0000FE094F83F000128F2D184F83F2008E0D5
:1012B00094F840000128EBD184F8402001E084F844
:1012C00041200122206800F095FA13492068134A52
:1012D000884201D0904203D1436C43F400434364FD
:1012E000206888420DD090420BD0B0F1804F08D0DA
:1012F0000B49884205D00B49884202D00A498842EE
:1013000004D1816801F00701062903D0016841F08A
:1013100001010160002010BD002C0140003401409B
:101320000004004000080040000C004030B50446B6
:101330000D460068002200F05DFA194B41F21111D0
:1013400020688A10984202D0164B984209D1036A4D
:101350000B4206D1036A134203D1436C23F40043CA
:1013600043642068036A0B4206D1016A114203D12B
:10137000016821F00101016001203DB1042D08D078
:10138000082D09D084F84100002030BD84F83E00CB
:10139000FAE784F83F00F7E784F84000F4E700003C
:1013A000002C014000340140FEE700002DE9F04729
:1013B00086B000252F480095019502950395816917
:1013C00041F040018161816901F04001049181692E
:1013D00041F010018161816901F01001049181697E
:1013E00041F004018161816901F004010491816986
:1013F00041F0080181618069DFF87C8000F008001D
:101400000490012220214046FFF77BF8DFF86C9022
:10141000012210214846FFF774F8DFF864A001228A
:1014200020215046FFF76DF81820CDE90005012472
:10143000694602944046FEF763FF20270226CDE965
:101440000074CDE9024669464046FEF759FF102078
:101450008DE8710069464846FEF752FFCDE90074F9
:10146000CDE9024669465046FEF74AFF06B0BDE8A0
:10147000F087000000100240001801400008014001
:10148000000C01401CB50024184801941649009432
:101490000160611E41604FF480718160FFF7FAFBCB
:1014A00008B1FEF718FF8DF804408DF805408DF85F
:1014B0000640012201A90D48FFF7B2FC08B1FEF772
:1014C0000AFF01208DF800008DF801008DF8020060
:1014D00002468DF8034069460448FFF73FFC0028A8
:1014E00001D0FEF7F8FE1CBD0028004014000020CB
:1014F00010B58EB000240794089409940A940B94B4
:101500001C2168460C94FEF781FE1E484FF0804176
:1015100001602321C0E901146321C0E90314802183
:101520008161FFF743FD08B1FEF7D5FE4FF480500F
:10153000079007A91348FFF779FD08B1FEF7CBFE26
:101540001048FFF76BFE08B1FEF7C5FE0B940BA920
:101550000C480C94FFF7ECFC08B1FEF7BCFE6020D1
:1015600000903220CDE90104002269460548049428
:10157000FFF7EEFD08B1FEF7AEFE0248FFF7C4FD2F
:101580000EB010BD28000020FEE7FEE770470109FD
:1015900001EB810100F00F0000EB4100C0B2704789
:1015A00070B50446FEF7B2FF05464FF47A7606E0C2
:1015B000FEF7ACFF401BB04201D9032070BD20688C
:1015C00040688006F4D52068416841F01001416010
:1015D000002070BD70B504460068416821F010011C
:1015E0004160FEF793FF05464FF47A7607E000BFAF
:1015F000FEF78CFF401BB04201D9032070BD20686C
:1016000040688006F4D5002070BD0168086A496A08
:1016100089B241EA00407047006881698AB2C169B5
:101620008BB2816989B28A4203D0C06961F31F40DD
:10163000704743EA02407047F0B56424C1EBC10330
:101640000927A500072603EB01130329B3FBF7F1D4
:1016500000F5FA60114401440AD2401EB0FBF4F2D6
:1016600001EB9001B0FBF5F0891A0844001D08E079
:10167000B0FBF4F201EB9001B0FBF5F0891A0844DD
:10168000801CB0FBF6F106FB1100C0B2F0BD70B5D6
:101690000D4606460024FFF783FF48B93168280C41
:1016A00008623168A8B248623046FFF793FF00B184
:1016B0000124204670BD70B50D4606460024FFF794
:1016C0006FFF48B93168280C88613168A8B2C861D9
:1016D0003046FFF77FFF00B10124204670BD704700
:1016E000FEF71ABF70B596B028216846FEF78EFD4A
:1016F00014210AA8FEF78AFD18210FA8FEF786FD1F
:101700000124052000250090CDE902544FF48030DB
:10171000019002260494CDE907604FF4E01009908F
:101720006846FFF727F908B172B6FEE70F20CDE94A
:101730000A064FF48060CDE90C5002210AA80E95EC
:10174000FFF74CF808B172B6FEE74FF48070CDE9B0
:101750000F400FA8FEF7CCFF002801D072B6FEE7BD
:1017600016B070BD70470000F0B502681C4B1D4DEF
:101770001D4E1E4F1E4C4FF0804C984209D0A04287
:1017800007D0604505D0A84203D0B04201D0B8428E
:1017900004D122F0700E4A6842EA0E02984209D043
:1017A000A04207D0604505D0A84203D0B04201D086
:1017B000B84203D122F44075CA682A434D6922F029
:1017C00080022A4302608A68C2620A688262984282
:1017D00001D0A04201D10969016301214161F0BD3D
:1017E000002C01400004004000080040000C0040B4
:1017F0000034014010B501F01F030121046A994033
:101800008C430462016A9A401143016210BD10B515
:10181000846842EA032224F47F440A43224382601C
:1018200010BD826822F070020A4342F00701816015
:1018300070470000F0B5036A026A22F001020262FA
:1018400042688469124E24F073050C682C4323F01F
:1018500002058B682B430D4DA84201D0B04205D143
:1018600023F00807CB683B4323F00403A84201D0D0
:10187000B04205D14D6922F4407215438A692A436A
:1018800042608461496841630362F0BD002C0140FD
:1018900000340140F0B5026A036A23F010030362CA
:1018A000436884690D6824F4E64444EA05248D689D
:1018B00022F0200242EA05120F4D104EA84201D03C
:1018C000B04206D1CF6822F0800242EA071222F02D
:1018D0004002A84201D0B04207D14D6923F44063D1
:1018E00043EA85038D6943EA85034360846149685F
:1018F00081630262F0BD0000002C01400034014011
:10190000F0B5026A036A23F4807303624368C46912
:1019100022F4007224F073050C68124E2C438D687B
:1019200042EA05220E4DA84201D0B04206D1CF684E
:1019300022F4006242EA072222F48062A84201D027
:10194000B04207D14D6923F4405343EA05138D6932
:1019500043EA05134360C4614968C1630262F0BD94
:10196000002C01400034014030B5046A026A22F4C0
:10197000805202624268C3690D6823F4E64343EA79
:1019800005238D6824F4005444EA0534084DA84228
:1019900002D0084DA84204D14D6922F4804242EAA7
:1019A00085124260C36149680164046230BD000071
:1019B000002C01400034014010B5036A046A24F091
:1019C00001040462846924F0F00444EA021423F060
:1019D0000A020A438461026210BD10B5036A046AF8
:1019E00024F010040462846923F0A00324F47044FA
:1019F00044EA023243EA01118261016210BDFEE74E
:101A00000907090E002804DB00F1E02080F800142B
:101A1000704700F00F0000F1E02080F8141D7047BF
:101A2000A8214843800800BF401EFCD27047000038
:101A3000FEF77AFDFFF756FEFFF7B8FCFFF722FD31
:101A4000FFF756FD0A20FFF7EBFF3F4D01263F4C05
:101A5000DFF8FC80DFF8FC90002708212846FEF71D
:101A60004BFD00BB0A20FEF739FC08212846FEF793
:101A700043FD0028F9D00A20FEF730FC0821284653
:101A8000FEF73AFD012819D1607810B101280BD07A
:101A900014E000213048FFF7EFFB00222021284608
:101AA000FEF72FFD667009E000212B48FFF73EFC92
:101AB000012220212846FEF724FD677010212846C8
:101AC000FEF71AFD0028C8D10A20FEF707FC1021F6
:101AD0002846FEF711FD0028F9D00A20FEF7FEFB8C
:101AE00010212846FEF708FD0128B6D100211A482A
:101AF000FFF71CFC0A20FFF793FF2078A0B1012814
:101B0000ABD1012220214046FEF7FBFC012210212F
:101B10004846FEF7F6FC0A20FFF782FF27700021F7
:101B20000D48FFF7A9FB98E7002220214046FEF769
:101B3000E8FC002210214846FEF7E3FC0A20FFF7EC
:101B40006FFF2670EBE70000001801400000002046
:101B5000000C01400008014028000020010202039F
:101B60000405060708090A0B0C0D0E0F10100102E0
:101B700002030405060708090A0B0C0D0E0F1010CE
:101B8000000000000000000001020304060708092D
:101B90000000000001020304B81B00080000002040
:101BA000140000006C010008CC1B00081400002089
:101BB000BC060000880100080000000001000000D1
:0C1BC00010000000000000000024F400F1
:0400000508000131BD
:00000001FF
